S01E000053657269616C5F446174615F56697375616C697A65722E7372656340
S11300000C9434000C9446000C9446000C94460066
S11300100C9446000C9446000C9446000C94460044
S11300200C9446000C9446000C9446000C94460034
S11300300C9446000C9446000C9446000C94460024
S11300400C9446000C9446000C9448000C94460012
S11300500C9446000C9446000C9446000C94460004
S11300600C9446000C94460011241FBECFEFD8E038
S1130070DEBFCDBF21E0A0E0B1E001C01D92A230FF
S1130080B207E1F70E9487000C9410010C94000061
S11300901F920F920FB60F9211248F938091C60076
S11300A08093010181E0809300018F910F900FBE36
S11300B00F901F90189583E38093C4001092C5009D
S11300C088E98093C100089580E480937C0087E8E8
S11300D080937A000895ECE7F0E090818770987F30
S11300E0892B8083EAE7F0E08081806480838081CB
S11300F086FDFDCF80917800909179000895E0EC21
S1130100F0E0908195FFFDCF8093C6000895CF93D2
S1130110DF93CDB7DEB72A970FB6F894DEBF0FBED4
S1130120CDBF81E087B90E945B000E94640078948F
S113013089E40E947F008FE40E947F0084E50E948E
S11301407F008DE20E947F0081E40E947F0082E5AF
S11301500E947F008DE40E947F0089E50E947F0059
S11301602FEF80E792E0215080409040E1F700C0FB
S113017000007E01ECE0EE0EF11C80E00E946B00BA
S11301804AE0BE016F5F7F4F0E94DB008E010F5F6C
S11301901F4FF80181918F010E947F000E151F05EA
S11301A0C1F7FFEF29E688E1F15020408040E1F7F4
S11301B000C00000E2CFBB274A3031F4992322F477
S11301C0BDE2909581959F4F0C94E700BB27FB01FE
S11301D05527AA27880F991FAA1FA41710F0A41B3C
S11301E083955051B9F7A05DAA3308F0A95DA19396
S11301F0009779F7B111B1931192CB010C940001DE
S1130200DC01FC01672F71917723E1F7329704C079
S11302107C916D9370836291AE17BF07C8F3089504
S1070220F894FFCF7C
S9030000FC
